{
  "contractName": "smartParking",
  "abi": [
    {
      "inputs": [],
      "name": "contractBalance",
      "outputs": [
        {
          "internalType": "uint256",
          "name": "",
          "type": "uint256"
        }
      ],
      "stateMutability": "view",
      "type": "function",
      "constant": true
    },
    {
      "inputs": [
        {
          "internalType": "uint256",
          "name": "",
          "type": "uint256"
        }
      ],
      "name": "parkingId",
      "outputs": [
        {
          "internalType": "address",
          "name": "",
          "type": "address"
        }
      ],
      "stateMutability": "view",
      "type": "function",
      "constant": true
    },
    {
      "inputs": [
        {
          "internalType": "address",
          "name": "",
          "type": "address"
        }
      ],
      "name": "req",
      "outputs": [
        {
          "internalType": "address",
          "name": "pAdd",
          "type": "address"
        },
        {
          "internalType": "address",
          "name": "vAdd",
          "type": "address"
        },
        {
          "internalType": "uint256",
          "name": "eFacter",
          "type": "uint256"
        },
        {
          "internalType": "uint256",
          "name": "SoC",
          "type": "uint256"
        },
        {
          "internalType": "uint256",
          "name": "demSup",
          "type": "uint256"
        },
        {
          "internalType": "uint256",
          "name": "proCharge",
          "type": "uint256"
        },
        {
          "internalType": "enum smartParking.Status",
          "name": "st",
          "type": "uint8"
        },
        {
          "internalType": "enum smartParking.Role",
          "name": "role",
          "type": "uint8"
        },
        {
          "internalType": "uint256",
          "name": "aSlot",
          "type": "uint256"
        },
        {
          "internalType": "uint256",
          "name": "adjGclear",
          "type": "uint256"
        },
        {
          "internalType": "uint256",
          "name": "paymentAmt",
          "type": "uint256"
        },
        {
          "internalType": "enum smartParking.paymentStatus",
          "name": "payStatus",
          "type": "uint8"
        }
      ],
      "stateMutability": "view",
      "type": "function",
      "constant": true
    },
    {
      "inputs": [
        {
          "internalType": "address",
          "name": "",
          "type": "address"
        }
      ],
      "name": "sParking",
      "outputs": [
        {
          "internalType": "address",
          "name": "pAdd",
          "type": "address"
        },
        {
          "internalType": "uint256",
          "name": "available",
          "type": "uint256"
        },
        {
          "internalType": "uint256",
          "name": "capacity",
          "type": "uint256"
        },
        {
          "internalType": "uint256",
          "name": "pSlots",
          "type": "uint256"
        },
        {
          "internalType": "uint256",
          "name": "ocuupied",
          "type": "uint256"
        }
      ],
      "stateMutability": "view",
      "type": "function",
      "constant": true
    },
    {
      "inputs": [
        {
          "internalType": "address",
          "name": "",
          "type": "address"
        }
      ],
      "name": "vRegistere",
      "outputs": [
        {
          "internalType": "address",
          "name": "vAdd",
          "type": "address"
        },
        {
          "internalType": "string",
          "name": "vName",
          "type": "string"
        },
        {
          "internalType": "uint256",
          "name": "capacity",
          "type": "uint256"
        },
        {
          "internalType": "uint256",
          "name": "gClearance",
          "type": "uint256"
        },
        {
          "internalType": "bool",
          "name": "vRegStatus",
          "type": "bool"
        }
      ],
      "stateMutability": "view",
      "type": "function",
      "constant": true
    },
    {
      "stateMutability": "payable",
      "type": "receive",
      "payable": true
    },
    {
      "inputs": [
        {
          "internalType": "address",
          "name": "_vAdd",
          "type": "address"
        },
        {
          "internalType": "string",
          "name": "_vName",
          "type": "string"
        },
        {
          "internalType": "uint256",
          "name": "_capacity",
          "type": "uint256"
        },
        {
          "internalType": "uint256",
          "name": "_gClear",
          "type": "uint256"
        }
      ],
      "name": "vehicleRegistration",
      "outputs": [],
      "stateMutability": "nonpayable",
      "type": "function"
    },
    {
      "inputs": [
        {
          "internalType": "address",
          "name": "_vAdd",
          "type": "address"
        }
      ],
      "name": "checkRegistration",
      "outputs": [
        {
          "internalType": "bool",
          "name": "",
          "type": "bool"
        }
      ],
      "stateMutability": "view",
      "type": "function",
      "constant": true
    },
    {
      "inputs": [
        {
          "internalType": "uint256",
          "name": "_available",
          "type": "uint256"
        },
        {
          "internalType": "uint256",
          "name": "_capacity",
          "type": "uint256"
        },
        {
          "internalType": "uint256",
          "name": "_pSlots",
          "type": "uint256"
        }
      ],
      "name": "registerParking",
      "outputs": [],
      "stateMutability": "nonpayable",
      "type": "function"
    },
    {
      "inputs": [
        {
          "internalType": "uint256",
          "name": "_available",
          "type": "uint256"
        },
        {
          "internalType": "uint256",
          "name": "_operation",
          "type": "uint256"
        },
        {
          "internalType": "address",
          "name": "_pAdd",
          "type": "address"
        }
      ],
      "name": "updateParking",
      "outputs": [],
      "stateMutability": "nonpayable",
      "type": "function"
    },
    {
      "inputs": [
        {
          "internalType": "address",
          "name": "_parkingAdd",
          "type": "address"
        },
        {
          "internalType": "uint256",
          "name": "_eFacter",
          "type": "uint256"
        },
        {
          "internalType": "uint256",
          "name": "_SoC",
          "type": "uint256"
        },
        {
          "internalType": "uint256",
          "name": "_demSup",
          "type": "uint256"
        },
        {
          "internalType": "enum smartParking.Role",
          "name": "_role",
          "type": "uint8"
        }
      ],
      "name": "requestCreation",
      "outputs": [],
      "stateMutability": "nonpayable",
      "type": "function"
    },
    {
      "inputs": [
        {
          "internalType": "address",
          "name": "_vAdd",
          "type": "address"
        }
      ],
      "name": "checkReq",
      "outputs": [
        {
          "internalType": "enum smartParking.Status",
          "name": "",
          "type": "uint8"
        }
      ],
      "stateMutability": "view",
      "type": "function",
      "constant": true
    },
    {
      "inputs": [
        {
          "internalType": "address",
          "name": "_vAdd",
          "type": "address"
        }
      ],
      "name": "parkingLotAllocation",
      "outputs": [],
      "stateMutability": "nonpayable",
      "type": "function"
    },
    {
      "inputs": [
        {
          "internalType": "address",
          "name": "_vAdd",
          "type": "address"
        },
        {
          "internalType": "uint256",
          "name": "_adjGclear",
          "type": "uint256"
        }
      ],
      "name": "vehicleParked",
      "outputs": [],
      "stateMutability": "nonpayable",
      "type": "function"
    },
    {
      "inputs": [
        {
          "internalType": "address",
          "name": "_vAdd",
          "type": "address"
        },
        {
          "internalType": "uint256",
          "name": "_proCharge",
          "type": "uint256"
        }
      ],
      "name": "vehicleParkingStatusUpdate",
      "outputs": [],
      "stateMutability": "nonpayable",
      "type": "function"
    },
    {
      "inputs": [
        {
          "internalType": "address payable",
          "name": "_parkingAdd",
          "type": "address"
        }
      ],
      "name": "paymentSettlement",
      "outputs": [],
      "stateMutability": "payable",
      "type": "function",
      "payable": true
    }
  ],
  "bytecode": "0x608060405234801561001057600080fd5b5061291d806100206000396000f3fe6080604052600436106100ec5760003560e01c8063645c255f1161008a578063c55bd1ce11610059578063c55bd1ce1461033f578063e2a4128314610368578063e9b5e6e6146103a5578063fcff1b3e146103ce5761010b565b8063645c255f146102625780636fc00a48146102a35780638b7afe2e146102eb5780639e12bd22146103165761010b565b8063528b6833116100c6578063528b6833146101cb57806356d1d519146101f457806357f28c1c1461021d57806362b1da3f146102395761010b565b806303c756d01461011057806306f6e59b1461014d5780633255241e1461018a5761010b565b3661010b57346000808282546101029190611cdb565b92505081905550005b600080fd5b34801561011c57600080fd5b5061013760048036038101906101329190611d71565b6103f7565b6040516101449190611ddf565b60405180910390f35b34801561015957600080fd5b50610174600480360381019061016f9190611e26565b61042a565b6040516101819190611eca565b60405180910390f35b34801561019657600080fd5b506101b160048036038101906101ac9190611e26565b610483565b6040516101c2959493929190611ef4565b60405180910390f35b3480156101d757600080fd5b506101f260048036038101906101ed919061208d565b6104d9565b005b34801561020057600080fd5b5061021b60048036038101906102169190612110565b6106ca565b005b610237600480360381019061023291906121a1565b61082c565b005b34801561024557600080fd5b50610260600480360381019061025b91906121f3565b610aa6565b005b34801561026e57600080fd5b5061028960048036038101906102849190611e26565b610ff3565b60405161029a959493929190612311565b60405180910390f35b3480156102af57600080fd5b506102ca60048036038101906102c59190611e26565b6110de565b6040516102e29c9b9a999897969594939291906123fb565b60405180910390f35b3480156102f757600080fd5b506103006111a5565b60405161030d91906124b5565b60405180910390f35b34801561032257600080fd5b5061033d600480360381019061033891906124d0565b6111ab565b005b34801561034b57600080fd5b5061036660048036038101906103619190612523565b611271565b005b34801561037457600080fd5b5061038f600480360381019061038a9190611e26565b611547565b60405161039c9190612563565b60405180910390f35b3480156103b157600080fd5b506103cc60048036038101906103c79190611e26565b6115a0565b005b3480156103da57600080fd5b506103f560048036038101906103f09190612523565b61199b565b005b60036020528060005260406000206000915054906101000a900473ffffffffffffffffffffffffffffffffffffffff1681565b6000600560008373ffffffffffffffffffffffffffffffffffffffff1673ffffffffffffffffffffffffffffffffffffffff16815260200190815260200160002060060160009054906101000a900460ff169050919050565b60026020528060005260406000206000915090508060000160009054906101000a900473ffffffffffffffffffffffffffffffffffffffff16908060010154908060020154908060030154908060040154905085565b8373ffffffffffffffffffffffffffffffffffffffff16600160008673ffffffffffffffffffffffffffffffffffffffff1673ffffffffffffffffffffffffffffffffffffffff16815260200190815260200160002060000160009054906101000a900473ffffffffffffffffffffffffffffffffffffffff1673ffffffffffffffffffffffffffffffffffffffff1614156105aa576040517f08c379a00000000000000000000000000000000000000000000000000000000081526004016105a1906125f0565b60405180910390fd5b6040518060a001604052808573ffffffffffffffffffffffffffffffffffffffff16815260200184815260200183815260200182815260200160011515815250600160008673ffffffffffffffffffffffffffffffffffffffff1673ffffffffffffffffffffffffffffffffffffffff16815260200190815260200160002060008201518160000160006101000a81548173ffffffffffffffffffffffffffffffffffffffff021916908373ffffffffffffffffffffffffffffffffffffffff160217905550602082015181600101908051906020019061068c929190611bff565b50604082015181600201556060820151816003015560808201518160040160006101000a81548160ff02191690831515021790555090505050505050565b6040518060a001604052803373ffffffffffffffffffffffffffffffffffffffff1681526020018481526020018381526020018281526020016000815250600260003373ffffffffffffffffffffffffffffffffffffffff1673ffffffffffffffffffffffffffffffffffffffff16815260200190815260200160002060008201518160000160006101000a81548173ffffffffffffffffffffffffffffffffffffffff021916908373ffffffffffffffffffffffffffffffffffffffff160217905550602082015181600101556040820151816002015560608201518160030155608082015181600401559050503360036000600454815260200190815260200160002060006101000a81548173ffffffffffffffffffffffffffffffffffffffff021916908373ffffffffffffffffffffffffffffffffffffffff1602179055506001600460008282546108209190611cdb565b92505081905550505050565b60058081111561083f5761083e611e53565b5b600560003373ffffffffffffffffffffffffffffffffffffffff1673ffffffffffffffffffffffffffffffffffffffff16815260200190815260200160002060060160009054906101000a900460ff1660058111156108a1576108a0611e53565b5b146108e1576040517f08c379a00000000000000000000000000000000000000000000000000000000081526004016108d890612682565b60405180910390fd5b600060018111156108f5576108f4611e53565b5b600560003373ffffffffffffffffffffffffffffffffffffffff1673ffffffffffffffffffffffffffffffffffffffff168152602001908152602001600020600a0160009054906101000a900460ff16600181111561095757610956611e53565b5b14610997576040517f08c379a000000000000000000000000000000000000000000000000000000000815260040161098e906126ee565b60405180910390fd5b6001600560003373ffffffffffffffffffffffffffffffffffffffff1673ffffffffffffffffffffffffffffffffffffffff168152602001908152602001600020600a0160006101000a81548160ff021916908360018111156109fd576109fc611e53565b5b02179055506001600260008373ffffffffffffffffffffffffffffffffffffffff1673ffffffffffffffffffffffffffffffffffffffff1681526020019081526020016000206004016000828254610a55919061270e565b925050819055508073ffffffffffffffffffffffffffffffffffffffff166108fc349081150290604051600060405180830381858888f19350505050158015610aa2573d6000803e3d6000fd5b5050565b60016005811115610aba57610ab9611e53565b5b600560003373ffffffffffffffffffffffffffffffffffffffff1673ffffffffffffffffffffffffffffffffffffffff16815260200190815260200160002060060160009054906101000a900460ff166005811115610b1c57610b1b611e53565b5b141580610b9d575060026005811115610b3857610b37611e53565b5b600560003373ffffffffffffffffffffffffffffffffffffffff1673ffffffffffffffffffffffffffffffffffffffff16815260200190815260200160002060060160009054906101000a900460ff166005811115610b9a57610b99611e53565b5b14155b80610c1c575060036005811115610bb757610bb6611e53565b5b600560003373ffffffffffffffffffffffffffffffffffffffff1673ffffffffffffffffffffffffffffffffffffffff16815260200190815260200160002060060160009054906101000a900460ff166005811115610c1957610c18611e53565b5b14155b610c5b576040517f08c379a0000000000000000000000000000000000000000000000000000000008152600401610c529061278e565b60405180910390fd5b600260008673ffffffffffffffffffffffffffffffffffffffff1673ffffffffffffffffffffffffffffffffffffffff16815260200190815260200160002060030154600260008773ffffffffffffffffffffffffffffffffffffffff1673ffffffffffffffffffffffffffffffffffffffff168152602001908152602001600020600401541415610d22576040517f08c379a0000000000000000000000000000000000000000000000000000000008152600401610d19906127fa565b60405180910390fd5b6040518061018001604052808673ffffffffffffffffffffffffffffffffffffffff1681526020013373ffffffffffffffffffffffffffffffffffffffff1681526020018581526020018481526020018381526020016000815260200160016005811115610d9357610d92611e53565b5b8152602001826002811115610dab57610daa611e53565b5b815260200160008152602001600081526020016000815260200160006001811115610dd957610dd8611e53565b5b815250600560003373ffffffffffffffffffffffffffffffffffffffff1673ffffffffffffffffffffffffffffffffffffffff16815260200190815260200160002060008201518160000160006101000a81548173ffffffffffffffffffffffffffffffffffffffff021916908373ffffffffffffffffffffffffffffffffffffffff16021790555060208201518160010160006101000a81548173ffffffffffffffffffffffffffffffffffffffff021916908373ffffffffffffffffffffffffffffffffffffffff16021790555060408201518160020155606082015181600301556080820151816004015560a0820151816005015560c08201518160060160006101000a81548160ff02191690836005811115610efc57610efb611e53565b5b021790555060e08201518160060160016101000a81548160ff02191690836002811115610f2c57610f2b611e53565b5b021790555061010082015181600701556101208201518160080155610140820151816009015561016082015181600a0160006101000a81548160ff02191690836001811115610f7e57610f7d611e53565b5b02179055509050506001600260008773ffffffffffffffffffffffffffffffffffffffff1673ffffffffffffffffffffffffffffffffffffffff1681526020019081526020016000206004016000828254610fd99190611cdb565b92505081905550610fec826000876111ab565b5050505050565b60016020528060005260406000206000915090508060000160009054906101000a900473ffffffffffffffffffffffffffffffffffffffff169080600101805461103c90612849565b80601f016020809104026020016040519081016040528092919081815260200182805461106890612849565b80156110b55780601f1061108a576101008083540402835291602001916110b5565b820191906000526020600020905b81548152906001019060200180831161109857829003601f168201915b5050505050908060020154908060030154908060040160009054906101000a900460ff16905085565b60056020528060005260406000206000915090508060000160009054906101000a900473ffffffffffffffffffffffffffffffffffffffff16908060010160009054906101000a900473ffffffffffffffffffffffffffffffffffffffff16908060020154908060030154908060040154908060050154908060060160009054906101000a900460ff16908060060160019054906101000a900460ff169080600701549080600801549080600901549080600a0160009054906101000a900460ff1690508c565b60005481565b60018214156112125782600260003373ffffffffffffffffffffffffffffffffffffffff1673ffffffffffffffffffffffffffffffffffffffff16815260200190815260200160002060010160008282546112069190611cdb565b9250508190555061126c565b82600260008373ffffffffffffffffffffffffffffffffffffffff1673ffffffffffffffffffffffffffffffffffffffff1681526020019081526020016000206001016000828254611264919061270e565b925050819055505b505050565b6001600281111561128557611284611e53565b5b600560008473ffffffffffffffffffffffffffffffffffffffff1673ffffffffffffffffffffffffffffffffffffffff16815260200190815260200160002060060160019054906101000a900460ff1660028111156112e7576112e6611e53565b5b14156113a4576002600560008473ffffffffffffffffffffffffffffffffffffffff1673ffffffffffffffffffffffffffffffffffffffff16815260200190815260200160002060060160006101000a81548160ff0219169083600581111561135357611352611e53565b5b021790555080600560008473ffffffffffffffffffffffffffffffffffffffff1673ffffffffffffffffffffffffffffffffffffffff16815260200190815260200160002060080181905550611543565b6002808111156113b7576113b6611e53565b5b600560008473ffffffffffffffffffffffffffffffffffffffff1673ffffffffffffffffffffffffffffffffffffffff16815260200190815260200160002060060160019054906101000a900460ff16600281111561141957611418611e53565b5b14156114d6576003600560008473ffffffffffffffffffffffffffffffffffffffff1673ffffffffffffffffffffffffffffffffffffffff16815260200190815260200160002060060160006101000a81548160ff0219169083600581111561148557611484611e53565b5b021790555080600560008473ffffffffffffffffffffffffffffffffffffffff1673ffffffffffffffffffffffffffffffffffffffff16815260200190815260200160002060080181905550611542565b6004600560008473ffffffffffffffffffffffffffffffffffffffff1673ffffffffffffffffffffffffffffffffffffffff16815260200190815260200160002060060160006101000a81548160ff0219169083600581111561153c5761153b611e53565b5b02179055505b5b5050565b6000600160008373ffffffffffffffffffffffffffffffffffffffff1673ffffffffffffffffffffffffffffffffffffffff16815260200190815260200160002060040160009054906101000a900460ff169050919050565b600260058111156115b4576115b3611e53565b5b600560008373ffffffffffffffffffffffffffffffffffffffff1673ffffffffffffffffffffffffffffffffffffffff16815260200190815260200160002060060160009054906101000a900460ff16600581111561161657611615611e53565b5b14158061169757506003600581111561163257611631611e53565b5b600560008373ffffffffffffffffffffffffffffffffffffffff1673ffffffffffffffffffffffffffffffffffffffff16815260200190815260200160002060060160009054906101000a900460ff16600581111561169457611693611e53565b5b14155b8061171557506005808111156116b0576116af611e53565b5b600560008373ffffffffffffffffffffffffffffffffffffffff1673ffffffffffffffffffffffffffffffffffffffff16815260200190815260200160002060060160009054906101000a900460ff16600581111561171257611711611e53565b5b14155b611754576040517f08c379a000000000000000000000000000000000000000000000000000000000815260040161174b906128c7565b60405180910390fd5b6001600281111561176857611767611e53565b5b600560008373ffffffffffffffffffffffffffffffffffffffff1673ffffffffffffffffffffffffffffffffffffffff16815260200190815260200160002060060160019054906101000a900460ff1660028111156117ca576117c9611e53565b5b1415611840576002600560008373ffffffffffffffffffffffffffffffffffffffff1673ffffffffffffffffffffffffffffffffffffffff16815260200190815260200160002060060160006101000a81548160ff0219169083600581111561183657611835611e53565b5b0217905550611998565b60028081111561185357611852611e53565b5b600560008373ffffffffffffffffffffffffffffffffffffffff1673ffffffffffffffffffffffffffffffffffffffff16815260200190815260200160002060060160019054906101000a900460ff1660028111156118b5576118b4611e53565b5b141561192b576003600560008373ffffffffffffffffffffffffffffffffffffffff1673ffffffffffffffffffffffffffffffffffffffff16815260200190815260200160002060060160006101000a81548160ff0219169083600581111561192157611920611e53565b5b0217905550611997565b6004600560008373ffffffffffffffffffffffffffffffffffffffff1673ffffffffffffffffffffffffffffffffffffffff16815260200190815260200160002060060160006101000a81548160ff0219169083600581111561199157611990611e53565b5b02179055505b5b50565b600160028111156119af576119ae611e53565b5b600560008473ffffffffffffffffffffffffffffffffffffffff1673ffffffffffffffffffffffffffffffffffffffff16815260200190815260200160002060060160019054906101000a900460ff166002811115611a1157611a10611e53565b5b1415611acd5760058060008473ffffffffffffffffffffffffffffffffffffffff1673ffffffffffffffffffffffffffffffffffffffff16815260200190815260200160002060060160006101000a81548160ff02191690836005811115611a7c57611a7b611e53565b5b021790555080600560008473ffffffffffffffffffffffffffffffffffffffff1673ffffffffffffffffffffffffffffffffffffffff16815260200190815260200160002060050181905550611bfb565b600280811115611ae057611adf611e53565b5b600560008473ffffffffffffffffffffffffffffffffffffffff1673ffffffffffffffffffffffffffffffffffffffff16815260200190815260200160002060060160019054906101000a900460ff166002811115611b4257611b41611e53565b5b1415611bfa5760058060008473ffffffffffffffffffffffffffffffffffffffff1673ffffffffffffffffffffffffffffffffffffffff16815260200190815260200160002060060160006101000a81548160ff02191690836005811115611bad57611bac611e53565b5b021790555080600560008473ffffffffffffffffffffffffffffffffffffffff1673ffffffffffffffffffffffffffffffffffffffff168152602001908152602001600020600501819055505b5b5050565b828054611c0b90612849565b90600052602060002090601f016020900481019282611c2d5760008555611c74565b82601f10611c4657805160ff1916838001178555611c74565b82800160010185558215611c74579182015b82811115611c73578251825591602001919060010190611c58565b5b509050611c819190611c85565b5090565b5b80821115611c9e576000816000905550600101611c86565b5090565b6000819050919050565b7f4e487b7100000000000000000000000000000000000000000000000000000000600052601160045260246000fd5b6000611ce682611ca2565b9150611cf183611ca2565b9250827fffffffffffffffffffffffffffffffffffffffffffffffffffffffffffffffff03821115611d2657611d25611cac565b5b828201905092915050565b6000604051905090565b600080fd5b600080fd5b611d4e81611ca2565b8114611d5957600080fd5b50565b600081359050611d6b81611d45565b92915050565b600060208284031215611d8757611d86611d3b565b5b6000611d9584828501611d5c565b91505092915050565b600073ffffffffffffffffffffffffffffffffffffffff82169050919050565b6000611dc982611d9e565b9050919050565b611dd981611dbe565b82525050565b6000602082019050611df46000830184611dd0565b92915050565b611e0381611dbe565b8114611e0e57600080fd5b50565b600081359050611e2081611dfa565b92915050565b600060208284031215611e3c57611e3b611d3b565b5b6000611e4a84828501611e11565b91505092915050565b7f4e487b7100000000000000000000000000000000000000000000000000000000600052602160045260246000fd5b60068110611e9357611e92611e53565b5b50565b6000819050611ea482611e82565b919050565b6000611eb482611e96565b9050919050565b611ec481611ea9565b82525050565b6000602082019050611edf6000830184611ebb565b92915050565b611eee81611ca2565b82525050565b600060a082019050611f096000830188611dd0565b611f166020830187611ee5565b611f236040830186611ee5565b611f306060830185611ee5565b611f3d6080830184611ee5565b9695505050505050565b600080fd5b600080fd5b6000601f19601f8301169050919050565b7f4e487b7100000000000000000000000000000000000000000000000000000000600052604160045260246000fd5b611f9a82611f51565b810181811067ffffffffffffffff82111715611fb957611fb8611f62565b5b80604052505050565b6000611fcc611d31565b9050611fd88282611f91565b919050565b600067ffffffffffffffff821115611ff857611ff7611f62565b5b61200182611f51565b9050602081019050919050565b82818337600083830152505050565b600061203061202b84611fdd565b611fc2565b90508281526020810184848401111561204c5761204b611f4c565b5b61205784828561200e565b509392505050565b600082601f83011261207457612073611f47565b5b813561208484826020860161201d565b91505092915050565b600080600080608085870312156120a7576120a6611d3b565b5b60006120b587828801611e11565b945050602085013567ffffffffffffffff8111156120d6576120d5611d40565b5b6120e28782880161205f565b93505060406120f387828801611d5c565b925050606061210487828801611d5c565b91505092959194509250565b60008060006060848603121561212957612128611d3b565b5b600061213786828701611d5c565b935050602061214886828701611d5c565b925050604061215986828701611d5c565b9150509250925092565b600061216e82611d9e565b9050919050565b61217e81612163565b811461218957600080fd5b50565b60008135905061219b81612175565b92915050565b6000602082840312156121b7576121b6611d3b565b5b60006121c58482850161218c565b91505092915050565b600381106121db57600080fd5b50565b6000813590506121ed816121ce565b92915050565b600080600080600060a0868803121561220f5761220e611d3b565b5b600061221d88828901611e11565b955050602061222e88828901611d5c565b945050604061223f88828901611d5c565b935050606061225088828901611d5c565b9250506080612261888289016121de565b9150509295509295909350565b600081519050919050565b600082825260208201905092915050565b60005b838110156122a857808201518184015260208101905061228d565b838111156122b7576000848401525b50505050565b60006122c88261226e565b6122d28185612279565b93506122e281856020860161228a565b6122eb81611f51565b840191505092915050565b60008115159050919050565b61230b816122f6565b82525050565b600060a0820190506123266000830188611dd0565b818103602083015261233881876122bd565b90506123476040830186611ee5565b6123546060830185611ee5565b6123616080830184612302565b9695505050505050565b6003811061237c5761237b611e53565b5b50565b600081905061238d8261236b565b919050565b600061239d8261237f565b9050919050565b6123ad81612392565b82525050565b600281106123c4576123c3611e53565b5b50565b60008190506123d5826123b3565b919050565b60006123e5826123c7565b9050919050565b6123f5816123da565b82525050565b600061018082019050612411600083018f611dd0565b61241e602083018e611dd0565b61242b604083018d611ee5565b612438606083018c611ee5565b612445608083018b611ee5565b61245260a083018a611ee5565b61245f60c0830189611ebb565b61246c60e08301886123a4565b61247a610100830187611ee5565b612488610120830186611ee5565b612496610140830185611ee5565b6124a46101608301846123ec565b9d9c50505050505050505050505050565b60006020820190506124ca6000830184611ee5565b92915050565b6000806000606084860312156124e9576124e8611d3b565b5b60006124f786828701611d5c565b935050602061250886828701611d5c565b925050604061251986828701611e11565b9150509250925092565b6000806040838503121561253a57612539611d3b565b5b600061254885828601611e11565b925050602061255985828601611d5c565b9150509250929050565b60006020820190506125786000830184612302565b92915050565b7f416464726573732065786973742063616e206e6f74206265207265676973746560008201527f7220747769636521000000000000000000000000000000000000000000000000602082015250565b60006125da602883612279565b91506125e58261257e565b604082019050919050565b60006020820190508181036000830152612609816125cd565b9050919050565b7f4368617267696e67206f72204469736368617267696e67206e6f7420636f6d7060008201527f6c65746564000000000000000000000000000000000000000000000000000000602082015250565b600061266c602583612279565b915061267782612610565b604082019050919050565b6000602082019050818103600083015261269b8161265f565b9050919050565b7f416c726561647920706169640000000000000000000000000000000000000000600082015250565b60006126d8600c83612279565b91506126e3826126a2565b602082019050919050565b60006020820190508181036000830152612707816126cb565b9050919050565b600061271982611ca2565b915061272483611ca2565b92508282101561273757612736611cac565b5b828203905092915050565b7f5265717565737420616c72656164792065786973740000000000000000000000600082015250565b6000612778601583612279565b915061278382612742565b602082019050919050565b600060208201905081810360008301526127a78161276b565b9050919050565b7f4e6f20736c6f747320617661696c61626c650000000000000000000000000000600082015250565b60006127e4601283612279565b91506127ef826127ae565b602082019050919050565b60006020820190508181036000830152612813816127d7565b9050919050565b7f4e487b7100000000000000000000000000000000000000000000000000000000600052602260045260246000fd5b6000600282049050600182168061286157607f821691505b602082108114156128755761287461281a565b5b50919050565b7f5061726b696e67206c6f7420616c726561647920616c6c6f7465640000000000600082015250565b60006128b1601b83612279565b91506128bc8261287b565b602082019050919050565b600060208201905081810360008301526128e0816128a4565b905091905056fea264697066735822122051dc31643327740deff5adbf1e01ee85239c41c6e4f6c1cd258518e0702fa79764736f6c634300080a0033",
  "immutableReferences": {},
  "source": "// SPDX-License-Identifier: GPL-3.0\npragma solidity ^0.8.0;\n\n//Registring a vehicle\n// Functions : 1) Parking initialization\n// 2) Parking slot allocation\n// 3) Charging payment\n// 4) Transaction query\n\ncontract smartParking{\n\n\n//------------ contract balance\nuint256 public contractBalance;\n//============ Receive funds\n// Function to allow deposit of Ether\nreceive() external payable {\n    contractBalance += msg.value;\n    //investors[msg.sender].invested_amt+=msg.value;\n    //emit Deposit(msg.sender, msg.value);\n    //policyHolder[_uAdd][_evid].premium=msg.value;\n}\n\n\n//------------------- Vehicle Section\n\nstruct vehicleRsg{\n    address vAdd;\n    string vName;\n    uint capacity;\n    uint gClearance;\n    bool vRegStatus;  //======= default value of boolean in false\n\n}\nmapping(address=>vehicleRsg) public vRegistere;\n//address[] public vehicleRegistered;\n//=========== Vehicle Mapping\n//mapping(uint=>address) public vAdd;\n\nfunction vehicleRegistration(address _vAdd, string memory _vName, uint _capacity, uint _gClear ) public {\n   //vehicleRsg memory = vRegistere[_vAdd];\n   require(vRegistere[_vAdd].vAdd !=_vAdd, \"Address exist can not be register twice!\");\n   vRegistere[_vAdd]= vehicleRsg(_vAdd, _vName, _capacity, _gClear,true);\n   //vehicleRegistered.push(_vAdd);\n}\n\nfunction checkRegistration(address _vAdd) view public returns(bool){\n  return vRegistere[_vAdd].vRegStatus;\n}\n//===================getting info\n//function getVehicle(address _vAdd) public returns(address[] memory){\n//  return vRegistere[_vAdd];\n//}\n\n//parking slot\nenum Slot{Available, Occupied}\n//========================Parking information\nstruct parking{\n  address pAdd;\n  uint256 available; //--- charge available\n  uint256 capacity;\n  uint256 pSlots; //---------nomuber of parking lots\n  uint256 ocuupied;\n}\n\nmapping(address=>parking) public sParking;\nmapping(uint=>address) public parkingId;\nuint256 pid;\n//================================================== Parking Registration\nfunction registerParking(uint256 _available,uint256 _capacity, uint256 _pSlots) public {\n    sParking[msg.sender]=parking(msg.sender,_available, _capacity,_pSlots,0);\n    parkingId[pid]=msg.sender;\n    pid+=1;\n}\n\n//----------------- updating power [ While calling from request creation the address of parking is required\nfunction updateParking(uint256 _available,uint256 _operation, address _pAdd) public{\n    if(_operation==1){\n        sParking[msg.sender].available+=_available; //---Supplied\n    }else{\n        sParking[_pAdd].available-=_available; //------ demanded\n    }\n}\n\n//============================================\nenum Status{Created, Waiting, Charging, Discharging,ParkingOnly,Completed}\nenum Role{ParkingOnly, Charging, Discharging}\nenum paymentStatus{NotPaid, Paid} //-------------- payment status\n//======================= Parking Request\nstruct parkingReq{\n  address pAdd; //-------- address of parking\n  address vAdd; //== Parked vehicle\n  uint eFacter; //----------- urgency factor [0,....1]\n  uint SoC; //--------- State of Charge\n  uint demSup; //------- Demand or supply\n  uint proCharge; //provided charge [ 0: in case of discharge, parking only, amt: charging]\n  Status st;\n  Role role;\n  uint aSlot; //-- allocated slot\n  uint adjGclear; //---- Adjusted height\n  uint paymentAmt;//======= payable amount for request\n  paymentStatus payStatus;\n\n}\n//================mapping\nmapping(address=>parkingReq) public req; //============ request mapping\n//=============== Creating request\nfunction requestCreation(address _parkingAdd, uint _eFacter, uint _SoC, uint _demSup, Role _role) public {\n   //require(vRegistere[_vAdd].vRegStatus == true,\"Address not registered for request creation.\"); \n   require(req[msg.sender].st != Status.Waiting || req[msg.sender].st != Status.Charging|| req[msg.sender].st != Status.Discharging,\"Request already exist\");\n   //Role _r=_role;\n   require(sParking[_parkingAdd].ocuupied!=sParking[_parkingAdd].pSlots,\"No slots available\");\n   req[msg.sender]=parkingReq(_parkingAdd, msg.sender,_eFacter,_SoC,_demSup,0,Status.Waiting,_role,0,0,0,paymentStatus.NotPaid);\n   sParking[_parkingAdd].ocuupied+=1;\n   updateParking(_demSup,0,_parkingAdd); //------- supply\n    } //=========function end\n \n//============function check request\nfunction checkReq(address _vAdd) view public returns(Status){\n  return req[_vAdd].st;\n}\n\n//=========== Parking slot allocation [ allocate the parking spot and adjGclear ]\nfunction parkingLotAllocation(address _vAdd) public {\n  //require(req[_vAdd].vAdd == _vAdd, \"Address not registered: Parking Allocation\"); \n  require((req[_vAdd].st != Status.Charging || req[_vAdd].st != Status.Discharging || req[_vAdd].st != Status.Completed) , \"Parking lot already alloted\"); //============ Vehicle registered but waiting for parking lot\n    if(req[_vAdd].role == Role.Charging){\n           req[_vAdd].st=Status.Charging;\n    } else if (req[_vAdd].role == Role.Discharging){\n           req[_vAdd].st=Status.Discharging;\n    }else{\n      req[_vAdd].st=Status.ParkingOnly;\n    }\n  \n}\n//==================Vehicle Parked [ On parking lot ]\nfunction vehicleParked(address _vAdd, uint _adjGclear) public {\n     if(req[_vAdd].role == Role.Charging){\n           req[_vAdd].st=Status.Charging;\n           req[_vAdd].adjGclear= _adjGclear; //====== Updating the adjusted height\n    } else if (req[_vAdd].role == Role.Discharging){\n           req[_vAdd].st=Status.Discharging;\n           req[_vAdd].adjGclear= _adjGclear; //====== Updating the adjusted height\n    }else{\n      req[_vAdd].st=Status.ParkingOnly;\n    }\n}\n\n//-------------------------------------------- To update vehicle status after charging or discharging\nfunction vehicleParkingStatusUpdate(address _vAdd, uint _proCharge) public {\n  if(req[_vAdd].role == Role.Charging){\n           req[_vAdd].st=Status.Completed;\n           req[_vAdd].proCharge=_proCharge;\n    } else if (req[_vAdd].role == Role.Discharging){\n           req[_vAdd].st=Status.Completed;\n           req[_vAdd].proCharge=_proCharge;\n    }\n    //req[_vAdd].payStatus = paymentStatus.NotPaid;\n}\n\n//===============Payment and reques settelment\nfunction paymentSettlement(address payable _parkingAdd) public payable{\n  require(req[msg.sender].st == Status.Completed, \"Charging or Discharging not completed\");\n  require(req[msg.sender].payStatus == paymentStatus.NotPaid, \"Already paid\");\n  req[msg.sender].payStatus = paymentStatus.Paid;\n  sParking[_parkingAdd].ocuupied-=1;\n  //req[_vAdd].st=Status.Created;\n  _parkingAdd.transfer(msg.value);\n\n}\n\n\n} //End of contract\n  ",
  "sourcePath": "/media/imb/NIT_PHD/Python/SmartParking/contracts/smartParking.sol",
  "compiler": {
    "name": "solc",
    "version": "0.8.10+commit.fc410830.Emscripten.clang"
  },
  "schemaVersion": "3.4.15",
  "updatedAt": "2024-03-06T14:44:42.455Z",
  "networkType": "ethereum",
  "devdoc": {
    "kind": "dev",
    "methods": {},
    "version": 1
  },
  "userdoc": {
    "kind": "user",
    "methods": {},
    "version": 1
  }
}